:1000000012C0189518951895189518951895189563
:100010001895189518951895189518951895189578
:100020001895189518958FED8DBFC8EBE0EA4E2E08
:10003000DD275D2EA89584B7082E877F84BF88E1D1
:10004000992781BD91BDEEE7F0E0A0E6B0E08827FA
:100050008D933197E9F7662480E081BB8FEF87BBF2
:1000600074B7777F74BF8EE181BD86E081BD85E185
:1000700090E0A0E68D939C9380E090E0A2E68D93C3
:100080009C9380E090E0A4E68D939C9380E090E0C8
:10009000A6E68D939C9370E078BB81E08093680026
:1000A00000916800043110F009F011C088B390E1AC
:1000B000892788BB88B390E4892788BB8AEF90E0C2
:1000C00041D1A8E68C918F5F8C9308F4E9CF88EE3C
:1000D00093E038D181B5886081BD70E078BBA0E342
:1000E0008C9183FBA8E38C9182F98C93A0E38C9193
:1000F00083FB80F9809580FBA8E38C9183F98C9336
:10010000A0E30C9102FB81E00EF480E08F93A2E665
:100110000D911C91003050E0150781E009F080E05E
:100120009F918923882309F405C080E596E4A2E61F
:100130008D939C93A0E30C9102FB81E00EF480E090
:100140008F93A2E60D911C91073356E4150780E0CA
:100150000CF481E09F918923882309F405C08FE086
:1001600090E0A2E68D939C93839905C080E090E097
:10017000A2E68D939C93839B12C0A6E60D911C91E1
:10018000003050E0150709F00AC088EB9BE0A2E6BA
:100190008D939C9381E090E0A6E68D939C93A6E6D8
:1001A0000D911C91013050E0150781E009F080E0CD
:1001B0008F93A0E30C9103FB81E00EF480E09F910C
:1001C0008923882309F405C080E090E0A6E68D939A
:1001D0009C93A2E60D911C91003050E0150714F09D
:1001E00009F001C009C0A2E60D911C910150104018
:1001F000A2E60D931C93C19AA2E60D911C910030CA
:1002000050E0150709F001C0C19881990EC0A4E61D
:100210000D911C91003050E0150709F005C08AE0EF
:1002200090E0A4E68D939C93C09A80990EC0A4E6BA
:100230000D911C91003050E0150709F005C085E0D4
:1002400090E0A4E68D939C93C09AA0E30C9100FBF0
:1002500081E00EF080E08F93A0E30C9101FB81E040
:100260000EF080E09F918923882309F401C0C09893
:10027000A4E60D911C91033050E0150709F001C070
:10028000C49AA4E60D911C91013050E0150709F0C5
:1002900001C0C498A4E60D911C91003050E01507F0
:1002A00014F009F001C008C0A4E60D911C910150A2
:1002B0001040A4E60D931C93A0E60D911C91003014
:1002C00050E0150714F009F001C008C0A0E60D9138
:1002D0001C9101501040A0E60D931C93A0E60D91D7
:1002E0001C91063050E0150709F001C0C59AA0E640
:1002F0000D911C91013050E0150709F001C0C5981F
:10030000A0E60D911C91003050E0150709F005C0E2
:1003100085E190E0A0E68D939C93A895C69A89E12B
:1003200090E010D0C6988BE490E00CD0D8CEF89432
:10033000FFCF3197F1F70895689462F80895E89433
:1003400062F80895EF93FF93EE27E82BE92B31F045
:10035000E8EEF3E03197F1F70197D1F7FF91EF91D4
:020360000895FE
:00000001FF
